:020000040800F2
:1000000000000320C5060008590600085B0600082A
:100010005D0600085F060008610600080000000099
:10002000000000000000000000000000630600085F
:100030006506000800000000670600086906000861
:100040001507000815070008150700081507000820
:100050001507000815070008150700081507000810
:100060001507000815070008150700081507000800
:1000700015070008150700081507000815070008F0
:1000800015070008150700081507000815070008E0
:1000900015070008150700081507000815070008D0
:1000A00015070008150700081507000815070008C0
:1000B00015070008150700081507000815070008B0
:1000C00015070008150700081507000815070008A0
:1000D0001507000815070008150700081507000890
:1000E0001507000815070008150700081507000880
:1000F0001507000815070008150700081507000870
:10010000150700081507000815070008150700085F
:10011000150700081507000815070008150700084F
:10012000150700081507000815070008150700083F
:10013000150700081507000815070008150700082F
:10014000150700081507000815070008150700081F
:10015000150700081507000815070008150700080F
:1001600015070008150700081507000815070008FF
:100170001507000815070008150700080000000013
:1001800015070008150700081507000815070008DF
:1001900015070008150700081507000815070008CF
:0C01A000150700081507000815070008E7
:1001AC0010B5054C237833B9044B13B10448AFF3A5
:1001BC0000800123237010BD0C0000200000000003
:1001CC006007000808B5034B1BB103490348AFF3A4
:1001DC00008008BD0000000010000020600700082F
:1001EC0038B50E4A0E4B054618784FF47A73B3FBAC
:1001FC00F0F31068B0FBF3F000F09CF8044658B92B
:10020C000F2D09D8024629464FF0FF3000F05EF85A
:10021C00044B20461D6038BD012038BD080000206D
:10022C00000000200400002008B50B4B1A6842F4B3
:10023C0000721A601A6842F480621A601A6842F4FA
:10024C0080721A60032000F02FF80020FFF7C8FF1F
:10025C0000F0B4F9002008BD003C0240034A044BF6
:10026C0011681B780B441360704700BF28000020F6
:10027C0000000020014B1868704700BF28000020C8
:10028C0038B50446FFF7F6FF631C1CBF054B1B7803
:10029C00054618BFE418FFF7EDFF401B8442FAD85F
:1002AC0038BD00BF00000020074AD36823F4E06388
:1002BC001B041B0C43F0BF63000243F4003300F437
:1002CC00E0600343D360704700ED00E0174B30B59E
:1002DC00DC68C4F30224C4F10703251D042B28BFDA
:1002EC000423062D4FF0010505FA03F303F1FF3348
:1002FC008CBF033C00241940A14005FA04F4013CD6
:10030C002240002842EA01024FEA0212AFBF00F17C
:10031C00604000F00F00064BD2B2A5BF00F5614063
:10032C00D2B21A5480F8002330BD00BF00ED00E0BB
:10033C0014ED00E00138B0F1807F0AD2064B074A79
:10034C005860F02182F823100020072298601A6070
:10035C0070470120704700BF10E000E000ED00E0A6
:10036C00704708B5FFF7FCFF08BD00002DE9F04F02
:10037C0085B00B68DFF8C4816E4ADFF8C491019335
:10038C0000234FF0010E019C0EFA03FE0EEA040648
:10039C00B64540F0B6804C6824F01007022F16D1F9
:1003AC004FEAD30A00EB8A0A03F0070BDAF8205065
:1003BC004FEA8B0B4FF00F0C0CFA0BFC25EA0C0CD4
:1003CC000D6905FA0BF545EA0C05CAF820504FEA01
:1003DC00430A0325D0F800B005FA0AF5ED4304F002
:1003EC00030C0BEA050B0CFA0AFC013F4CEA0B0C54
:1003FC00012FC0F800C011D8876807EA050BCF6839
:10040C0007FA0AFC4CEA0B078760476827EA0E0ECE
:10041C00C4F300179F4047EA0E074760C7683D408A
:10042C008F6807FA0AF73D43C560E50069D54FF0C0
:10043C00000BCDF80CB0D8F844703F4D47F4804712
:10044C00C8F84470D8F8447007F480470397039FAA
:10045C0023F0030707F1804707F59C3703F0030CE3
:10046C00D7F808A04FEA8C0C4FF00F0E0EFA0CFECA
:10047C00A8422AEA0E0E4BD005F58065A84249D059
:10048C0005F58065A84247D005F58065A84245D0A2
:10049C0005F58065A84243D0484543D005F5006575
:1004AC00A84241D005F58065A8423FD005F580658E
:1004BC00A8423DD005F58065A84214BF0A25092540
:1004CC0005FA0CF545EA0E05BD601568F74314F402
:1004DC00803F0CBF3D4035431560556814F4003F18
:1004EC000CBF3D4035435560956814F4801F0CBF1C
:1004FC003D4035439560D568A40254BF3D4035431B
:10050C00D5600133102B7FF43CAF05B0BDE8F08F04
:10051C005D46D5E70125D3E70225D1E70325CFE7D3
:10052C000425CDE70525CBE70625C9E70725C7E751
:10053C000825C5E7003C014000000240003802409D
:10054C00001402400AB1816170470904FBE7000006
:10055C0010B586B0FFF768FE0023164A0093116BA6
:10056C001548154C41F002011163126B039302F014
:10057C0002020092009A04934FF48042019201A966
:10058C0001220292FFF7F2FE01224FF48041204635
:10059C00FFF7D8FF4FF47A70FFF772FE2046002267
:1005AC004FF48041FFF7CEFF4FF47A70FFF768FEEF
:1005BC00EAE700BF003802400004024013B5224BAA
:1005CC00002400945A6C42F480425A645A6C02F42F
:1005DC0080420092009A01941A6C42F080521A6484
:1005EC001B6C03F0805301930320019BFFF75CFE0F
:1005FC00224621466FF00B00FFF768FE224621468B
:10060C006FF00A00FFF762FE224621466FF00900E8
:10061C00FFF75CFE224621466FF00400FFF756FE02
:10062C00224621466FF00300FFF750FE224621467A
:10063C006FF00100FFF74AFE224621464FF0FF30D3
:10064C00FFF744FE02B010BD003802407047FEE7D1
:10065C00FEE7FEE7FEE770477047704708B5FFF707
:10066C00FDFDBDE80840FFF77CBE00000F49D1F846
:10067C00883043F47003C1F888300D4B1A680020A1
:10068C0042F001021A6098601A6822F0847222F417
:10069C0080321A60074A5A601A6822F480221A6063
:1006AC00D8604FF000638B60704700BF00ED00E036
:1006BC000038024010300024DFF834D0002103E071
:1006CC000C4B5B58435004310B480C4B42189A426C
:1006DC00F6D30B4A02E0002342F8043B094B9A4242
:1006EC00F9D3FFF7C3FF00F011F8FFF731FF7047A4
:1006FC000000032080070008000000200C000020F0
:10070C000C0000202C000020FEE7000070B50D4E00
:10071C000D4CA41BA4100025A54209D10B4E0C4C6A
:10072C0000F018F8A41BA4100025A54205D170BD3B
:10073C0056F8253098470135EEE756F8253098479E
:10074C000135F2E7780700087807000878070008F9
:10075C007C070008F8B500BFF8BC08BC9E46704783
:0C076C00F8B500BFF8BC08BC9E46704702
:04077800D1010008A3
:04077C00AD010008C3
:0C07800001000000100000000024F40044
:04000005080006C524
:00000001FF
